{
    "contractName": "Staker",
    "abi": [
        {
            "anonymous": false,
            "inputs": [
                {
                    "indexed": true,
                    "internalType": "address",
                    "name": "staker",
                    "type": "address"
                },
                {
                    "indexed": false,
                    "internalType": "uint256",
                    "name": "amount",
                    "type": "uint256"
                },
                {
                    "indexed": false,
                    "internalType": "uint256",
                    "name": "sharesReceived",
                    "type": "uint256"
                },
                {
                    "indexed": false,
                    "internalType": "uint256",
                    "name": "sharePrice",
                    "type": "uint256"
                }
            ],
            "name": "Deposit",
            "type": "event"
        },
        {
            "anonymous": false,
            "inputs": [
                {
                    "indexed": true,
                    "internalType": "address",
                    "name": "previousOwner",
                    "type": "address"
                },
                {
                    "indexed": true,
                    "internalType": "address",
                    "name": "newOwner",
                    "type": "address"
                }
            ],
            "name": "OwnershipTransferred",
            "type": "event"
        },
        {
            "anonymous": false,
            "inputs": [
                {
                    "indexed": true,
                    "internalType": "address",
                    "name": "staker",
                    "type": "address"
                },
                {
                    "indexed": false,
                    "internalType": "uint256",
                    "name": "shares",
                    "type": "uint256"
                },
                {
                    "indexed": false,
                    "internalType": "uint256",
                    "name": "amountReceived",
                    "type": "uint256"
                }
            ],
            "name": "Withdraw",
            "type": "event"
        },
        {
            "inputs": [],
            "name": "balancer",
            "outputs": [
                {
                    "internalType": "contract IBPool",
                    "name": "pool",
                    "type": "address"
                },
                {
                    "internalType": "address",
                    "name": "rights",
                    "type": "address"
                },
                {
                    "internalType": "uint256",
                    "name": "tokenInitialLiquidity",
                    "type": "uint256"
                },
                {
                    "internalType": "uint256",
                    "name": "tenderTokenInitialLiquidity",
                    "type": "uint256"
                }
            ],
            "stateMutability": "view",
            "type": "function"
        },
        {
            "inputs": [],
            "name": "controller",
            "outputs": [
                {
                    "internalType": "contract IController",
                    "name": "",
                    "type": "address"
                }
            ],
            "stateMutability": "view",
            "type": "function"
        },
        {
            "inputs": [],
            "name": "owner",
            "outputs": [
                {
                    "internalType": "address",
                    "name": "",
                    "type": "address"
                }
            ],
            "stateMutability": "view",
            "type": "function"
        },
        {
            "inputs": [],
            "name": "renounceOwnership",
            "outputs": [],
            "stateMutability": "nonpayable",
            "type": "function"
        },
        {
            "inputs": [],
            "name": "targetId",
            "outputs": [
                {
                    "internalType": "bytes32",
                    "name": "",
                    "type": "bytes32"
                }
            ],
            "stateMutability": "view",
            "type": "function"
        },
        {
            "inputs": [],
            "name": "tenderToken",
            "outputs": [
                {
                    "internalType": "contract ITenderToken",
                    "name": "",
                    "type": "address"
                }
            ],
            "stateMutability": "view",
            "type": "function"
        },
        {
            "inputs": [],
            "name": "token",
            "outputs": [
                {
                    "internalType": "contract IERC20",
                    "name": "",
                    "type": "address"
                }
            ],
            "stateMutability": "view",
            "type": "function"
        },
        {
            "inputs": [
                {
                    "internalType": "address",
                    "name": "newOwner",
                    "type": "address"
                }
            ],
            "name": "transferOwnership",
            "outputs": [],
            "stateMutability": "nonpayable",
            "type": "function"
        },
        {
            "inputs": [
                {
                    "internalType": "contract IERC20",
                    "name": "_token",
                    "type": "address"
                },
                {
                    "internalType": "contract ITenderToken",
                    "name": "_tenderToken",
                    "type": "address"
                },
                {
                    "components": [
                        {
                            "internalType": "contract IBPool",
                            "name": "pool",
                            "type": "address"
                        },
                        {
                            "internalType": "address",
                            "name": "rights",
                            "type": "address"
                        },
                        {
                            "internalType": "uint256",
                            "name": "tokenInitialLiquidity",
                            "type": "uint256"
                        },
                        {
                            "internalType": "uint256",
                            "name": "tenderTokenInitialLiquidity",
                            "type": "uint256"
                        }
                    ],
                    "internalType": "struct Staker.Balancer",
                    "name": "_balancer",
                    "type": "tuple"
                },
                {
                    "internalType": "contract IOneInch",
                    "name": "_oneInch",
                    "type": "address"
                },
                {
                    "internalType": "contract IWETH",
                    "name": "_weth",
                    "type": "address"
                }
            ],
            "name": "init",
            "outputs": [],
            "stateMutability": "nonpayable",
            "type": "function"
        },
        {
            "inputs": [],
            "name": "sharePrice",
            "outputs": [
                {
                    "internalType": "uint256",
                    "name": "",
                    "type": "uint256"
                }
            ],
            "stateMutability": "view",
            "type": "function"
        },
        {
            "inputs": [
                {
                    "internalType": "uint256",
                    "name": "_amount",
                    "type": "uint256"
                }
            ],
            "name": "deposit",
            "outputs": [],
            "stateMutability": "nonpayable",
            "type": "function"
        },
        {
            "inputs": [
                {
                    "internalType": "uint256",
                    "name": "_amount",
                    "type": "uint256"
                }
            ],
            "name": "withdraw",
            "outputs": [],
            "stateMutability": "nonpayable",
            "type": "function"
        },
        {
            "inputs": [],
            "name": "collect",
            "outputs": [],
            "stateMutability": "nonpayable",
            "type": "function"
        },
        {
            "inputs": [
                {
                    "internalType": "bytes",
                    "name": "_data",
                    "type": "bytes"
                }
            ],
            "name": "manageBalancerRights",
            "outputs": [],
            "stateMutability": "nonpayable",
            "type": "function"
        }
    ],
    "bytecode": "0x608060405260006100176001600160e01b0361006a16565b600280546001600160a01b0319166001600160a01b038316908117909155604051919250906000907f8be0079c531659141344cd1fd0a4f28419497f9722a3daafe3b4186f6b6457e0908290a35061006e565b3390565b610e798061007d6000396000f3fe608060405234801561001057600080fd5b50600436106100ea5760003560e01c80638da5cb5b1161008c578063e563037e11610066578063e563037e14610190578063f2fde38b146101a8578063f77c4791146101bb578063fc0c546a146101c3576100ea565b80638da5cb5b1461016d578063b6b55f2514610175578063e522538114610188576100ea565b806359a6c3ad116100c857806359a6c3ad14610135578063715018a614610148578063872697291461015057806387fc5e0614610165576100ea565b8063261a4aa5146100ef5780632d822160146101045780632e1a7d4d14610122575b600080fd5b6101026100fd366004610aa6565b6101cb565b005b61010c610299565b6040516101199190610c2f565b60405180910390f35b610102610130366004610be3565b6102a8565b610102610143366004610b30565b610466565b6101026104eb565b61015861056a565b6040516101199190610c80565b610158610740565b61010c610746565b610102610183366004610be3565b610755565b61010261083b565b61019861083d565b6040516101199493929190610c89565b6101026101b6366004610a6a565b61085c565b61010c610913565b61010c610922565b6101d3610931565b6002546001600160a01b039081169116146102095760405162461bcd60e51b815260040161020090610da3565b60405180910390fd5b6006546040516000916060916001600160a01b039091169061022c908590610c13565b6000604051808303816000865af19150503d8060008114610269576040519150601f19603f3d011682016040523d82523d6000602084013e61026e565b606091505b50915091508181906102935760405162461bcd60e51b81526004016102009190610cb2565b50505050565b6004546001600160a01b031681565b60006102da670de0b6b3a76400006102ce6102c161056a565b859063ffffffff61093516565b9063ffffffff61097816565b600480546040516323b872dd60e01b81529293506001600160a01b0316916323b872dd9161030e9133913091889101610c43565b602060405180830381600087803b15801561032857600080fd5b505af115801561033c573d6000803e3d6000fd5b505050506040513d601f19601f820116820180604052506103609190810190610a86565b61037c5760405162461bcd60e51b815260040161020090610d2b565b60048054604051630852cd8d60e31b81526001600160a01b03909116916342966c68916103ab91869101610c80565b600060405180830381600087803b1580156103c557600080fd5b505af11580156103d9573d6000803e3d6000fd5b505060035460405163a9059cbb60e01b81526001600160a01b03909116925063a9059cbb915061040f9033908590600401610c67565b602060405180830381600087803b15801561042957600080fd5b505af115801561043d573d6000803e3d6000fd5b505050506040513d601f19601f820116820180604052506104619190810190610a86565b505050565b600380546001600160a01b03199081166001600160a01b039788161790915560048054821695871695909517909455825160058054861691871691909117905560208301516006805486169187169190911790556040830151600755606090920151600855600980548416918516919091179055600a80549092169216919091179055565b6104f3610931565b6002546001600160a01b039081169116146105205760405162461bcd60e51b815260040161020090610da3565b6002546040516000916001600160a01b0316907f8be0079c531659141344cd1fd0a4f28419497f9722a3daafe3b4186f6b6457e0908390a3600280546001600160a01b0319169055565b600480546005546040516370a0823160e01b8152600093849361067d936001600160a01b03918216936370a08231936105a7939092169101610c2f565b60206040518083038186803b1580156105bf57600080fd5b505afa1580156105d3573d6000803e3d6000fd5b505050506040513d601f19601f820116820180604052506105f79190810190610bfb565b60048054604080516318160ddd60e01b815290516001600160a01b03909216926318160ddd928282019260209290829003018186803b15801561063957600080fd5b505afa15801561064d573d6000803e3d6000fd5b505050506040513d601f19601f820116820180604052506106719190810190610bfb565b9063ffffffff6109ba16565b6003546040516370a0823160e01b81529192506000916001600160a01b03909116906370a08231906106b3903090600401610c2f565b60206040518083038186803b1580156106cb57600080fd5b505afa1580156106df573d6000803e3d6000fd5b505050506040513d601f19601f820116820180604052506107039190810190610bfb565b90508161071c57670de0b6b3a76400009250505061073d565b610738826102ce83670de0b6b3a764000063ffffffff61093516565b925050505b90565b60015481565b6002546001600160a01b031690565b600061077a61076261056a565b6102ce84670de0b6b3a764000063ffffffff61093516565b6003546040516323b872dd60e01b81529192506001600160a01b0316906323b872dd906107af90339030908790600401610c43565b602060405180830381600087803b1580156107c957600080fd5b505af11580156107dd573d6000803e3d6000fd5b505050506040513d601f19601f820116820180604052506108019190810190610a86565b61080a57600080fd5b600480546040516340c10f1960e01b81526001600160a01b03909116916340c10f199161040f913391869101610c67565b565b6005546006546007546008546001600160a01b03938416939092169184565b610864610931565b6002546001600160a01b039081169116146108915760405162461bcd60e51b815260040161020090610da3565b6001600160a01b0381166108b75760405162461bcd60e51b815260040161020090610ce5565b6002546040516001600160a01b038084169216907f8be0079c531659141344cd1fd0a4f28419497f9722a3daafe3b4186f6b6457e090600090a3600280546001600160a01b0319166001600160a01b0392909216919091179055565b6000546001600160a01b031681565b6003546001600160a01b031681565b3390565b60008261094457506000610972565b8282028284828161095157fe5b041461096f5760405162461bcd60e51b815260040161020090610d62565b90505b92915050565b600061096f83836040518060400160405280601a81526020017f536166654d6174683a206469766973696f6e206279207a65726f0000000000008152506109fc565b600061096f83836040518060400160405280601e81526020017f536166654d6174683a207375627472616374696f6e206f766572666c6f770000815250610a33565b60008183610a1d5760405162461bcd60e51b81526004016102009190610cb2565b506000838581610a2957fe5b0495945050505050565b60008184841115610a575760405162461bcd60e51b81526004016102009190610cb2565b505050900390565b803561097281610e2b565b600060208284031215610a7b578081fd5b813561096f81610e2b565b600060208284031215610a97578081fd5b8151801515811461096f578182fd5b60006020808385031215610ab8578182fd5b823567ffffffffffffffff80821115610acf578384fd5b81850186601f820112610ae0578485fd5b8035925081831115610af0578485fd5b610b02601f8401601f19168501610dd8565b91508282528684848301011115610b17578485fd5b8284820185840137509081019091019190915292915050565b6000806000806000858703610100811215610b49578182fd5b8635610b5481610e2b565b95506020870135610b6481610e2b565b94506080603f1982011215610b77578182fd5b50610b826080610dd8565b6040870135610b9081610e2b565b81526060870135610ba081610e2b565b60208201526080870135604082015260a087013560608201529250610bc88760c08801610a5f565b9150610bd78760e08801610a5f565b90509295509295909350565b600060208284031215610bf4578081fd5b5035919050565b600060208284031215610c0c578081fd5b5051919050565b60008251610c25818460208701610dff565b9190910192915050565b6001600160a01b0391909116815260200190565b6001600160a01b039384168152919092166020820152604081019190915260600190565b6001600160a01b03929092168252602082015260400190565b90815260200190565b6001600160a01b0394851681529290931660208301526040820152606081019190915260800190565b6000602082528251806020840152610cd1816040850160208701610dff565b601f01601f19169190910160400192915050565b60208082526026908201527f4f776e61626c653a206e6577206f776e657220697320746865207a65726f206160408201526564647265737360d01b606082015260800190565b60208082526017908201527f4552525f54454e4445525f5452414e5346455246524f4d000000000000000000604082015260600190565b60208082526021908201527f536166654d6174683a206d756c7469706c69636174696f6e206f766572666c6f6040820152607760f81b606082015260800190565b6020808252818101527f4f776e61626c653a2063616c6c6572206973206e6f7420746865206f776e6572604082015260600190565b60405181810167ffffffffffffffff81118282101715610df757600080fd5b604052919050565b60005b83811015610e1a578181015183820152602001610e02565b838111156102935750506000910152565b6001600160a01b0381168114610e4057600080fd5b5056fea2646970667358221220a90f1c3e6d7e90d47fd57a55d1914196dc6d5fa662ce9fe51879a8c95a1de72a64736f6c63430006020033",
    "source": "pragma solidity ^0.6.2;\npragma experimental ABIEncoderV2;\n\n// libraries\nimport \"@openzeppelin/contracts/math/SafeMath.sol\";\n\n// local imports \nimport \"./Proxy/ProxyTarget.sol\";\nimport \"./Token/TenderToken.sol\";\n\n// external imports\nimport \"@openzeppelin/contracts/access/Ownable.sol\";\n\n// interfaces \nimport \"./IStaker.sol\";\nimport \"./Token/ITenderToken.sol\";\nimport \"./Swap/IBPool.sol\";\nimport \"./Swap/IOneInch.sol\";\nimport \"./Swap/IWETH.sol\";\n\n// WETH Address 0xc02aaa39b223fe8d0a0e5c4f27ead9083c756cc2\n\ncontract Staker is ProxyTarget, Ownable, IStaker {\n    using SafeMath for uint256;\n\n    struct Balancer {\n        IBPool pool;\n        address rights;\n        uint256 tokenInitialLiquidity;\n        uint256 tenderTokenInitialLiquidity;\n    }\n\n    modifier autoCollect() {\n        collect();\n        _;\n    }\n\n    // Tokens\n    // Underlying asset\n    IERC20 public token;\n    // Derivative\n    ITenderToken public tenderToken;\n\n    // Swap\n    Balancer public balancer; \n    IOneInch oneInch;\n    IWETH weth;\n\n    // TODO: WETH and oneInch can be constants \n    // Balancer Pool needs to be created in constructor because we can not add liquidity for both tokens otherwise\n    // Will have to approve _token before calling init and in init call _token.transferFrom then mint the same amount of tenderToken\n    // And add both to the pool\n    function init(IERC20 _token, ITenderToken _tenderToken, Balancer memory _balancer, IOneInch _oneInch, IWETH _weth) public virtual {\n        token = _token;\n        tenderToken = _tenderToken;\n        balancer = _balancer;\n        oneInch = _oneInch;\n        weth = _weth;\n    }\n\n    function sharePrice() public virtual override view returns (uint256) {\n        uint256 tenderSupply = tenderToken.totalSupply().sub(tenderToken.balanceOf(address(balancer.pool)));\n        uint256 outstanding = token.balanceOf(address(this));\n        if (tenderSupply ==  0 ) { return 1e18; }\n        return outstanding.mul(1e18).div(tenderSupply);\n    }\n\n    function deposit(uint256 _amount) external virtual override {\n        uint256 shares = _amount.mul(1e18).div(sharePrice());\n        require(token.transferFrom(msg.sender, address(this), _amount));\n        tenderToken.mint(msg.sender, shares);\n    }\n\n    function withdraw(uint256 _amount) external virtual override {\n        uint256 owed = _amount.mul(sharePrice()).div(1e18);\n        require(tenderToken.transferFrom(msg.sender, address(this), _amount), \"ERR_TENDER_TRANSFERFROM\");\n        tenderToken.burn(_amount); \n        token.transfer(msg.sender, owed);\n    }\n\n    function collect() public virtual override {}\n\n    function manageBalancerRights(bytes memory _data) public onlyOwner {\n        (bool success, bytes memory returnData) = balancer.rights.call(_data);\n        require(success, string(returnData));\n    }\n\n    function addLiquidity(uint256 _amount) internal {\n        // BPool.join() is only available when the pool is finalized\n        // We can send tokens to the pool and then BPool.gulp() to incorporate the balances\n        // If we send amounts relative to their current weights we don't change the spot price\n        // TODO: find a better mechanism for this\n\n        // mint tenderTokens for _amount \n        // tenderTokens in the pool will not count towards the share price\n        address pool = address(balancer.pool);\n\n        // To not change the balance of the pool we must calculate\n        // How many tenderTokens to mint based on its weight relative to the underlying token\n        uint256 tenderWeight = balancer.pool.getNormalizedWeight(address(tenderToken));\n        uint256 tokenWeight = uint256(1e18).sub(tenderWeight);\n        uint256 tenderMintAmount = _amount.mul(tenderWeight.mul(1e18).div(tokenWeight)).div(1e18);\n\n        tenderToken.mint(pool, tenderMintAmount);\n        token.approve(pool, _amount);\n        require(token.transfer(pool, _amount));\n\n        // Gulp the tokens into the pool\n        balancer.pool.gulp(address(tenderToken));\n        balancer.pool.gulp(address(token));\n    }\n}",
    "sourcePath": "/Users/nico/Desktop/tender/tenderize/packages/contracts/contracts/Staker.sol",
    "compiler": {
        "name": "solc",
        "version": "0.6.2+commit.bacdbe57.Emscripten.clang"
    },
    "schemaVersion": "3.3.0",
    "updatedAt": "2020-10-16T22:18:00.868Z",
    "devdoc": {
        "methods": {
            "owner()": {
                "details": "Returns the address of the current owner."
            },
            "renounceOwnership()": {
                "details": "Leaves the contract without owner. It will not be possible to call `onlyOwner` functions anymore. Can only be called by the current owner.     * NOTE: Renouncing ownership will leave the contract without an owner, thereby removing any functionality that is only available to the owner."
            },
            "transferOwnership(address)": {
                "details": "Transfers ownership of the contract to a new account (`newOwner`). Can only be called by the current owner."
            }
        }
    },
    "userdoc": {
        "methods": {}
    }
}